:020000040800F2
:10000000501E0020510100086F1E0008BD1D000891
:100010006D1E00084D020008AD230008000000001E
:100020000000000000000000000000004D1F00085C
:100030008702000800000000711E00084F1F000822
:100040006B0100086B0100086B0100086B010008E0
:100050006B0100086B0100086B0100086B010008D0
:100060006B0100086B0100086B0100086B010008C0
:100070006B0100086B0100086B01000851020008C9
:100080006B0100086B0100086B0100086B010008A0
:100090006B0100086B0100086B0100086B01000890
:1000A0006B0100086B0100086B0100086B01000880
:1000B0006B0100086B0100086B0100086B01000870
:1000C0006B0100086B0100086B0100086B01000860
:1000D0006B010008A12300086B0100086B010008F8
:1000E0006B0100086B0100086B0100086B01000840
:1000F0006B0100086B0100086B0100086B01000830
:100100006B0100086B0100086B0100086B0100081F
:100110006B0100086B0100086B0100086B0100080F
:100120006B0100086B0100086B0100086B010008FF
:10013000DFF810D000F068F800480047DD2700081D
:10014000AFF30080501E002080F308887047000045
:100150000648804706480047FEE7FEE7FEE7FEE761
:10016000FEE7FEE7FEE7FEE7FEE7FEE7AF1F00085B
:1001700031010008202A04DB203A21FA02F0002194
:10018000704721FA02F3D040C2F1200291400843A7
:100190001946704740EA01039B0703D009E008C9EC
:1001A000121F08C0042AFAD203E011F8013B00F83C
:1001B000013B521EF9D27047D2B201E000F8012B88
:1001C000491EFBD270470022F6E710B513460A46D7
:1001D00004461946FFF7F0FF204610BD30B50B4628
:1001E000014600202022012409E021FA02F59D4267
:1001F00005D303FA02F5491B04FA02F52844151E3B
:10020000A2F10102F1DC30BD064C074D06E0E068CA
:1002100040F0010394E8070098471034AC42F6D34D
:10022000FFF78AFFCC2F0008EC2F000810B5054817
:1002300001F06EFB044801F0CBF8BDE8104000F07F
:1002400045BB000048090020F8190020FEE7000027
:10025000014800F0A1B900009009002030B590F8E5
:1002600040500124AC40C56B6C6004686360436817
:10027000102B036803D099600068C26030BD9A609B
:100280000068C16030BD704772B6FEE706490020C5
:10029000C8610648016941F004010161016941F04A
:1002A0004001016170470000D80900200020024091
:1002B000064A0021D16106490A6942F002020A6138
:1002C0004861086940F0400008617047D809002083
:1002D00000200240044B0022DA61044A136943F013
:1002E0000103136101807047D809002000200240FB
:1002F00014490020CA68D306134A04D5D06940F0D7
:100300000200D0611020CB685B0705D5D36943F0AC
:100310000103D36140F00400CB69DB0707D0D36948
:1003200043F00403D361CA6922F00102CA61A0F557
:100330008072013A01D0C8607047C86920F001009E
:10034000C861704700200240D809002070B50446FB
:1003500000F00EFD0546114E09E0601C07D024B1E7
:1003600000F006FD401BA04201D9032070BDF068DB
:10037000C007F2D1F068800601D52020F060F06857
:10038000C00605D4F069C00702D1F068400703D564
:10039000FFF7AEFF012070BD002070BD00200240BD
:1003A00010B590F821100022022905D004218163A4
:1003B00080F82020012010BD01680B6823F00E0397
:1003C0000B6001680B6823F001030B6090F840306C
:1003D000012404FA03F1C36B596080F8214080F8CE
:1003E0002020104610BD00002DE9F05F90F821108C
:1003F0000024022903D004218163012485E00168DF
:100400000A6822F00E020A6001680A6822F00102FE
:100410000A603F4E3E4FB215DFF8F4C0DFF8F090AF
:10042000DFF8ECA0DFF8E8B0DFF8E4E00168783F3F
:1004300013011502ACF1640CA9F15009AAF13C0AB0
:10044000ABF1280BAEF1140E4FF48018B14227D94E
:10045000B9420ED0614512D049451DD0514518D042
:10046000594518D0714501D1424615E0294EB14297
:1004700001D1012210E0274E1436B14201D11022E1
:100480000AE0244E2836B14206D0224A3C3291423C
:1004900001D11A4600E02A461E49091F0A602BE0D6
:1004A000B94213D0614517D0494522D051451DD0DE
:1004B00059451DD0714501D142461AE0B14202D1E1
:1004C0004FF0807215E0134EB14201D1012210E0CD
:1004D000104E1436B14201D110220AE00D4E2836DA
:1004E000B14206D00B4A3C32914201D11A4600E09B
:1004F0002A46074980394A60012180F821100021ED
:1005000080F82010416B01B188472046BDE8F09F7C
:10051000800002400804024010B5D0B101680A68AA
:1005200022F001020A600268002111600268516035
:10053000026891600268D160144C02681423A242E0
:1005400009D2134C2244B2FBF3F292000264114A26
:100550000AE0012010BD0D4C64422244B2FBF3F2CC
:1005600092000264094A083AC26390F840300122BE
:100570009A40C36B5A608162C162016341638163C7
:1005800080F8211080F82010002010BD08040240DF
:10059000F8FFFDBF000002402DE9F05FC16B0B6862
:1005A00001680A68046C4FF0040808FA04F8844DE6
:1005B000844E854FDFF814C2DFF81492DFF814A2DE
:1005C000DFF814B2DFF814E218EA030F65D05FEA2F
:1005D000427862D50A68920603D40A6822F00402BF
:1005E0000A60DFF8F0814FF48062016808F11408B6
:1005F00013011402414524D9A9420DD0B1420FD0B4
:10060000B9421AD0614515D0494515D0514501D19F
:10061000120312E0594501D104220EE0714501D1C7
:1006200040220AE06D4D1435A94206D06B4A2832AB
:10063000914201D11A4600E022466749091F0A602B
:1006400029E0A94213D0B14215D0B94220D061456A
:100650001BD049451BD0514502D14FF4800217E011
:10066000414502D14FF0806212E0594501D1042288
:100670000EE0714501D140220AE0584D1435A942DF
:1006800006D0564A2832914201D11A4600E022464D
:100690004B4908394A60C16A71E04FF0020808FA14
:1006A00004F818EA030F70D05FEA82786DD50A6803
:1006B000920606D40A6822F00A020A60012180F834
:1006C0002110DFF810814FF40072016808F114085E
:1006D00013011402414524D9A9420DD0B1420FD0D3
:1006E000B9421AD0614515D0494515D0514501D1BF
:1006F000120312E0594501D102220EE0714501D1E9
:1007000020220AE0354D1435A94206D0334A28325A
:10071000914201D11A4600E022462F49091F0A6082
:1007200029E0A94213D0B14215D0B94220D0614589
:100730001BD049451BD0514502D14FF4001217E0A0
:10074000414502D14FF0007212E0594501D1022219
:100750000EE0714501D120220AE0204D1435A94256
:1007600006D01E4A2832914201D11A4600E02246A4
:10077000134908394A60002180F82010816A002955
:100780001CD0BDE8F05F0847FFE70825A5401D42E3
:1007900014D0120712D50A6822F00E020A6090F8EF
:1007A0004020C36B012101FA02F25A60816380F894
:1007B0002110002180F82010016BE0E7BDE8F09FD8
:1007C000080002401C000240300002404400024089
:1007D000580002406C000240080402401C04024021
:1007E00030B560B11A4B01681422994209D2194BF5
:1007F0000B44B3FBF2F292000264174A0AE00120B4
:1008000030BD134B5B420B44B3FBF2F29200026427
:100810000F4A083AC263022280F821200A6843F690
:10082000F0739A43F0E901342343D0E902452C43A5
:1008300023430469234344692343846923431343C3
:100840000B6000214163012242770177084630BDE9
:1008500008040240F8FFFDBF0000024070B50446E6
:1008600090F82000002501280CD0012084F82000F9
:1008700094F821600020012E06D084F82000022583
:10088000284670BD022070BD022684F82160A06356
:100890002068066826F0010606602046FFF7DEFCA9
:1008A000E06A00282068016802D041F00E0106E0ED
:1008B00021F0040101602068016841F00A01016033
:1008C0002068016841F001010160D9E7064810B5D0
:1008D0004FF0FF31016100220261C160C26000F08F
:1008E00087FA002010BD00000010024070B50446D9
:1008F00000F03EFA0546601C02D00448007804442B
:1009000000F036FA401BA042FAD370BD040000206C
:100910002DE9F047054626480F460126017E0129AC
:100920000FD00121814601762868DFF888804CF2DB
:100930005034022808D0A2462046FFF707FDA8B190
:1009400031E00220BDE8F0872046FFF7FFFC08BB3E
:100950000120FFF79BFC2046FFF7F8FCD8F81010A9
:10096000064621F00401C8F810101CE04FF0FF30DB
:100970003860AC6811E02046FFF79AFC5046FFF75C
:10098000E5FCD8F81010060021F00201C8F810109C
:1009900001D03C6007E004F50064D5E9020100EBFA
:1009A000C120A042E7D8002189F818103046C9E7D5
:1009B000D8090020002002400348016941F080016D
:1009C0000161002070470000002002402DE9F05F27
:1009D00005461D4888460024017E16461F4601290B
:1009E00009D00121814601764CF2503A5046FFF77A
:1009F000ADFC18B123E00220BDE8F09F012D02D02C
:100A0000022D00D00425D346DFF840A015E02201D6
:100A100030463946FFF7AEFB81B208EB4400FFF7E2
:100A200059FC5846FFF792FCDAF8102022F0010238
:100A3000CAF8102018B9641CE4B2AC42E7D3002213
:100A400089F81820D8E70000D809002000200240CB
:100A5000064900200A69120607D5054A4A60054A78
:100A60004A600969090600D501207047002002404C
:100A700023016745AB89EFCD2DE9F0430022DFF874
:100A8000D4904FF00F0C60E0012393400B405AD0FC
:100A900022F003054D44AC689607370F0CFA07F6B1
:100AA00006EA04082C4CA04201D1002419E02B4C8A
:100AB000A04201D1012414E0294CA04201D102241A
:100AC0000FE0284CA04201D103240AE0264CA042AA
:100AD00001D1042405E0254CA04201D1052400E009
:100AE0000624BC40444513D1214F3C689C433C60E4
:100AF0003F1D3C689C433C601D4F0C373C689C4349
:100B00003C603F1F3C689C433C60AC68B443AC60B5
:100B1000FF2B01D8044601E000F104044FEA8205EE
:100B200001D9A5F1200526680CFA05F726EA070683
:100B30004FF0040707FA05F746EA07062660C4687F
:100B400024EA0304C46002F1010231FA02F39BD1EA
:100B5000BDE8F0830000014000080140000C0140A6
:100B6000001001400014014000180140001C014029
:100B7000000401402DE9F84FDFF8C0910024A9F1ED
:100B8000040B23464FF00F0809F1040AABF1040EE1
:100B9000CCE00127A7403A40BA4272D1DFF8A0C1A9
:100BA0004D68A5EB0C0665452BD00DDC032D34D02C
:100BB00005DC35B3012D19D0022D2FD11BE0112DED
:100BC00016D0122D2AD119E0B6F5881F19D006DCEF
:100BD000B6F5803F15D0B6F5801F1FD111E0B6F5F0
:100BE000001F0ED0B6F5041F18D10AE0CB6815E03F
:100BF000CB681B1D12E0CB6808330FE0CB680C33C9
:100C00000CE08B682BB1012B4FF0080303D0476138
:100C100004E0042302E0076100E00023FF2A01D87A
:100C2000064601E000F104064FEA840501D9A5F16A
:100C30002005376808FA05FC27EA0C0703FA05F5D2
:100C400047EA050737604D68ED006ED53D4DAE694A
:100C500046F00106AE61AD6924F0030605F001051A
:100C60000095394D7719BE68A5072D0F08FA05FCC8
:100C700026EA0C06DFF8D4C0604503D14FF0000C23
:100C800025E052E0DFF8C8C0604502D14FF0010C0A
:100C90001DE0DFF8C0C0604502D14FF0020C16E045
:100CA000DFF8B4C0604502D14FF0030C0FE0DFF86D
:100CB000ACC0604502D14FF0040C08E0DFF8A0C0E2
:100CC000604502D14FF0050C01E04FF0060C0CFA24
:100CD00005FC4CEA060CC7F808C04D68D9F800605E
:100CE000ED024D4601D5164300E096432E604D6857
:100CF000DAF80060AD02554601D5164300E0964390
:100D00002E604D68DBF80060AD035D4601D51643EB
:100D100000E096432E604D68DEF80060ED037546F6
:100D200001D5164300E096432E60641C0A6832FA2F
:100D300004F57FF42EAFBDE8F88F000008040140F1
:100D400000001110001002400000014000080140A6
:100D5000000C014000100140001401400018014047
:100D6000001C01400AB1016170470904FBE7000063
:100D70000148806870470000040000200248816834
:100D8000027811448160704704000020074810B5C4
:100D9000016841F010010160032000F087F80F2086
:100DA00000F006F800F026F8002010BD00200240F8
:100DB00070B50D4D04464FF47A712878B1FBF0F010
:100DC0000A490968B1FBF0F000F0ACFC48B9102CFE
:100DD00007D200222146501E00F048F800206C6027
:100DE00070BD012070BD0000040000201000002034
:100DF000704700000C4808B5816941F0010181612C
:100E0000816901F001010091C16941F08051C16126
:100E1000C069064900F080500090486820F0E0600A
:100E200040F00070486008BD001002400000014022
:100E300000280DDB00F01F020121914040098000D5
:100E400000F1E020C0F88011BFF34F8FBFF36F8F28
:100E50007047002809DB00F01F0201219140400982
:100E6000800000F1E020C0F800117047F0B40E4B94
:100E70001B68C3F30223C3F10704042C00D9042424
:100E80001D1D072D01D2002300E0DB1E012606FAFE
:100E900004F56D1E0D409D409E40761E164045EAAD
:100EA0000601F0BC01F0B0BA0CED00E0064A00F01B
:100EB000070110684FF6FF03184040EA012003497C
:100EC00008431060704700000CED00E00000FA05D8
:100ED000BFF34F8F05480168054A01F4E0611143F3
:100EE0000160BFF34F8F00BFFDE700000CED00E095
:100EF0000400FA052DE9F0470D46040067D0DFF83D
:100F00001881D8F8000000F00700A8420CD2D8F8E9
:100F1000001021F007012943C8F80010D8F800009C
:100F200000F00700A84252D120683C4E810712D53C
:100F3000400703D5706840F4E060706020780007D7
:100F400003D5706840F4605070607068A16820F04C
:100F5000F000084370602078C00727D0606801283F
:100F600010D03168022810D0890700292FDA716863
:100F700021F0030101437160FFF7FAFE074641F2D9
:100F800088390CE031688903EFE78901EDE7FFF765
:100F9000EFFEC11B494502D90320BDE8F087706808
:100FA000616800F00C00B0EB810FF0D1D8F80010B0
:100FB000404601F00701A9420BD9016821F0070161
:100FC00029430160006800F00700A84201D0012019
:100FD000E3E72078400705D57068E16820F4E06019
:100FE000084370602078000706D57068216920F4F6
:100FF000605040EAC100706000F038F87168084A3B
:10100000C1F30311515CC8400649086006480068F6
:10101000FFF7CEFE0020C0E7002002400010024093
:10102000B22F0008100000200800002004480549E5
:1010300000684968044AC1F30221515CC840704706
:101040001000002000100240C22F0008044805498B
:1010500000684968044AC1F3C221515CC840704726
:101060001000002000100240C22F00080E4B5968EB
:101070000E4801F00C02042A11D0082A0FD10C48A6
:10108000C1F38342C903805C0AD55968084AC1F399
:101090004041921E515C054A5043B0FBF1F070474D
:1010A00004494843704700000010024000127A00D3
:1010B000A22F000800093D002DE9F84F04006FD071
:1010C0002078BE4DC00747D06868C0F38100012872
:1010D00007D06868C0F38100022809D16868C0039E
:1010E00006D52868800337D560680028E7D033E04C
:1010F0006068B0F5803F0BD010B1B0F5A02F11D0D3
:10110000286820F480302860286820F4802002E0DD
:10111000286840F480302860606888B1FFF728FEB6
:10112000064609E0286840F480202860F0E7FFF7D1
:101130001FFE801B642873D828688003F7D50BE056
:10114000FFF716FE064604E0FFF712FE801B642838
:10115000F1D828688003F7D42078DFF8648280070C
:101160004FF0010A4FF0000939D5686810F00C0FF4
:1011700007D06868C0F38100022809D16868C003FD
:1011800006D42868800714D52069012808D110E00A
:101190002069B0B1C8F800A0FFF7EAFD064605E0F7
:1011A00007E1FFF7E5FD801B0228C4D82868800707
:1011B000F7D52868616920F0F80040EAC10028608E
:1011C0000DE0C8F80090FFF7D3FD064604E0FFF7F6
:1011D000CFFD801B022823D828688007F7D4207809
:1011E00000072CD57748A169D9B1C0F800A0FFF756
:1011F000BFFD064604E0FFF7BBFD801B02280FD8A9
:10120000686A8007F7D570484FF4FA510068B0FB60
:10121000F1F0009000BF0098411E0091FAD20EE05C
:101220007CE0C0F80090FFF7A3FD064604E0FFF75E
:101230009FFD801B022871D8686A8007F7D4207848
:1012400040075BD5E8690027C00008D4E86940F092
:101250008050E861E869012700F0805000905B4809
:101260000168C90511D40168834641F480710160A9
:10127000FFF77EFD064604E0FFF77AFD801B642839
:101280004CD8DBF80000C005F6D5E06801280AD08C
:1012900008B1052813D0286A20F001002862286AC6
:1012A00020F0040002E0286A40F001002862E068B3
:1012B00041F2883B88B1FFF75BFD064609E0286AEA
:1012C00040F004002862EEE7FFF752FD811B59450C
:1012D0005BD8286A8007F7D50BE0FFF749FD064683
:1012E00004E0FFF745FD811B59454ED8286A800769
:1012F000F7D41FB1E86920F08050E861E069A8B335
:101300006968C1F38101022946D00228484606D007
:10131000C8F86000FFF72CFD044639E035E0474689
:10132000C8F86000FFF724FD064604E0FFF720FD43
:10133000801B022829D828688001F7D4206AB0F5DC
:10134000803F05D16868A16820F4003008436860D8
:10135000D4E908010843696821F4741108436860FE
:10136000C7F860A0FFF704FD044605E023E0FFF79F
:10137000FFFC001B022808D828688001F7D51AE076
:10138000FFF7F6FC001B022802D90320BDE8F88F06
:1013900028688001F4D40EE00128F7D06868226A3A
:1013A00000F48031914204D1616A00F470108842E7
:1013B00001D00120EAE70020E8E700000010024029
:1013C00000004242800442421000002000700040B1
:1013D00010B5040011D0022084F851002068016883
:1013E00021F040010160204600F062F800206065B5
:1013F00084F8510084F8500010BD012010BD70B574
:10140000040009D0606A002540B125616561A562CC
:1014100094F8510040B10CE0012070BD6068B0F557
:10142000827FF4D0E561F2E784F85050204600F066
:1014300041F8022084F851002068016821F0400141
:101440000160A088218900F4827001F404410843FE
:10145000A18901F400610843217C01F002010843E5
:10146000217D01F001010843218B01F40071084343
:10147000217F01F03801084394F8201001F0800129
:101480000843218D01F40051084321680860A069D8
:10149000042101EA1040216848602068C16921F4F4
:1014A0000061C1616565012084F85100002070BDB4
:1014B0007047000010B500681D4986B0884234D1DD
:1014C0001C48816941F008018161816901F00801CE
:1014D0000491816941F008018161816901F008018D
:1014E0000491816941F0080181618069124C00F02A
:1014F000080004904FF40050009002200190012059
:1015000002900320039069462046FFF733FB4FF417
:101510008041009169462046FFF72CFB4FF40041C3
:10152000009169462046FFF725FB06B010BD00007C
:101530000038004000100240000C01402DE9FF4F30
:1015400081B0044690F85000012500270E9E984671
:10155000934601280FD0AA4684F850A0FFF708FC54
:1015600094F8511081466268404601290DD0B2F5C9
:10157000827F08D103E0022005B0BDE8F08FA268A9
:101580000AB9042901D00227C7E00299002968D0CE
:10159000BBF1000FFBD0B8F1000FF8D094F8511058
:1015A000042902D0052184F8511000216165C4F896
:1015B00038B0A4F83E80A4F83C80029A2263A4F8D4
:1015C0003680A4F834802164616421680A68520678
:1015D00003D40A6842F040020A60E168B1F5006F86
:1015E000616803D0E1B3012843D07AE009B1012852
:1015F00038D1206B21680088C860206B801C206374
:10160000E08E401EE0862DE02068816889070DD5B8
:10161000E18E59B1012D09D1216B0988C160206B80
:10162000801C2063E08E401EE086002520688168D3
:10163000C9070BD0E18F49B1C068A16B0880A06BCE
:10164000801CA063E08F401EE0870125FFF790FB20
:10165000A0EB0900B04205D3701C03D003275AE069
:1016600007E056E0E08E0028CED1E08F0028CBD1F5
:101670003DE0206B216800780873206B401C2063DC
:10168000E08E401EE0862CE02068816889070DD539
:10169000E18E59B1012D09D1216B09780173206BBD
:1016A000401C2063E08E401EE08600252068816893
:1016B000C9070BD0E18F49B1C068A16B0870A06B5E
:1016C000401CA063E08F401EE0870125FFF750FB20
:1016D000A0EB0900B04202D3701C02D0BEE7002E7E
:1016E000BCD0E08E0028CFD1E08F0028CCD14A4674
:1016F0003146204600F0BDFB18B10127202060656F
:101700000BE0A06818B92068C16880680090606D1F
:1017100008B1012701E084F851A0002084F85000AE
:10172000384629E710B5401EB0F1807F01D3012073
:1017300010BD4FF0E02460610F21601700F064FEDF
:101740000020A06107202061002010BD38B50446AC
:1017500090F84200202801D0022038BD51B14AB192
:101760000120206300206063204600F093FD01000B
:1017700002D005E0012038BD206B012802D00121F4
:10178000084638BD206802684068009020680C3028
:1017900050E8002F42F0100240E80023002BF5D162
:1017A000EEE7000070B500684C4988427ED14C4895
:1017B000006840684B4CC0F58770A4F5116523782C
:1017C0002978C2B2012B06D02046042B40780CD0D9
:1017D000052B20D057E0012A72D1612970D1042055
:1017E00020704148312141706AE0012A05D1412928
:1017F00005D0422908D043290AD03CA03EE005216B
:10180000217040F002005AE03B4800F0D9FA57E05E
:10181000FFF75EFB54E0012901D1852A02D0012A9D
:101820002FD030E020F0010060708021E81C00F033
:10183000BEFDE06095F8841095F8832001EB02214D
:10184000814220D1A0682D49401CA060401E00F0BC
:101850000F0001EBC0108022E91CFEF79BFC207AF0
:1018600000070AD120694FF40062401CC1022061C8
:101870002248A1F5006101F057FA21A000F0B4FD63
:101880001EE0042901D01FA0F8E71DA000F0ACFD68
:10189000A068010710D000F00F004FF6FF7101EAB9
:1018A000C01260612069C102144800E015E001F037
:1018B0003BFA2069401C2061607840F004006070B1
:1018C0004FF4877421461048FEF77DFC2246BDE8A0
:1018D00070400D490D48FFF739BF70BD0038014019
:1018E000900900203009002000000020636D642072
:1018F0006572726F0D0A000000A000082E01002022
:10190000060000001500000020000020480900200B
:1019100010B5040015D0242084F841002068C16867
:1019200021F40051C160204600F080F9002060647D
:1019300084F8410084F8420044F8300F606020745D
:1019400010BD012010BD000001A000F04DBD000041
:101950006572726F72206E6F770D0A00F8B50168BC
:1019600004460868CA684B6910F00F0F4FF0000575
:1019700059D003F0010602F49077374365D0C107D0
:1019800005D0D10503D5616C41F0010161644107C7
:1019900005D5D90703D0616C41F00201616481076C
:1019A00005D5D90703D0616C41F0040161640107DA
:1019B00007D502F02001314303D0616C41F00801EA
:1019C0006164616C00293AD0800604D5900602D586
:1019D000204600F0A1FB20684069616CC0F38010D4
:1019E000090700D460B3204600F061FB206840691D
:1019F000400621D52068143050E8001F21F0400136
:101A000040E80012002AF5D1E06BA8B16D494163AE
:101A1000E06BFEF7E9FC002811D0E06B416B01B0F0
:101A2000BDE8F040084783060FD593060DD5204644
:101A3000BDE8F84000F070BB2046FFF785FFF8BD19
:101A40002046FFF781FF6564F8BD266B2023012E39
:101A50007CD1C6067AD5D60678D508684868009045
:101A600048694FF00206400640D5E16B08684068BF
:101A70000004000CE8D0A28D8242E5D9E085886997
:101A800020282DD020680C3050E8001F21F48071F0
:101A900040E80012002AF5D12068143050E8001FF9
:101AA00021F0010140E80012002AF5D1206814302D
:101AB00050E8001F21F0400140E80012002AF5D153
:101AC00084F84230256320680C3050E8001F21F074
:101AD000100140E80012002AF5D1E06BFEF760FC2F
:101AE0006663A08DE18D401A81B22AE0A08DE18D60
:101AF000401A81B2E08D0028A6D00029A4D0206829
:101B00000C3050E8002F22F4907240E80027002F9C
:101B1000F5D12068143050E8002F22F0010240E88F
:101B20000027002FF5D184F84230256320680C305F
:101B300050E8002F22F0100240E80023002BF5D1DE
:101B400066632046FFF72EFEF8BDFFE705062BD59E
:101B5000150629D594F841002128F5D1A068B0F5E3
:101B6000805F01D12069B0B1206A411C21622168E7
:101B700000784860E08C401E0004000CE084E3D153
:101B80002068C16821F08001C1602068C16841F00F
:101B90004001C160D8E7206A0088C0F308004860AF
:101BA000206A801C2062E5E74006CDD55006CBD5E3
:101BB000CA68204622F04002CA6084F8413000F032
:101BC000FCF8C1E7B11F000870B5040004D094F818
:101BD0004100002510B106E0012070BD84F840509E
:101BE000204600F043F8242084F841002068C168B2
:101BF00021F40051C160204600F0F0FA206801692C
:101C000021F4904101612068416921F02A0141617C
:101C10002068C16841F40051C1606564202084F8E7
:101C2000410084F842006563002070BD10B5044691
:101C300000680B49884211D10A48816921F480412A
:101C400081614FF4C0610848FEF716FFE06BFEF7B4
:101C500063FCBDE810402520FFF7EAB810BD000086
:101C600000380140001002400008014070B586B005
:101C700000240646009401940294039400682249CB
:101C800088423FD12148816941F480418161816965
:101C900001F480410491816941F00401816180690E
:101CA0001B4D00F0040004904FF4007000900220DF
:101CB00001900320039069462846FEF75BFF281534
:101CC000CDE90004694628460294FEF753FF124D01
:101CD0001048C5E900048020C5E902402C616C6110
:101CE000AC612846EC61FEF77BFD08B1FEF7CCFA4B
:101CF000F5630022114625206E62FFF7B7F8252014
:101D0000FFF7A7F806B070BD003801400010024090
:101D100000080140580002409009002070477047B9
:101D20002DE9F843044690F841001F4615460E463B
:101D3000202802D00220BDE8F8837EB175B10020D2
:101D40006064212084F84100FFF712F8A5848046E2
:101D5000E584A068B0F5805F02D003E00120EAE7E7
:101D6000206910B1354600260EE000250CE08021E8
:101D7000204600F0D9FAA0B9ADB115F8010B2168E1
:101D80004860E08C401EE084E08C43464FF0000247
:101D900000970028EBD14FF04001204600F0C4FA34
:101DA00030B10320C7E736F8020BC0F30800E6E7BE
:101DB000202084F841000020BDE77047FEE70000C6
:101DC00010B504460068A0F10051B1F5803F0AD279
:101DD000FEF7BAF96068044C2060FEF727FA206825
:101DE000BDE81040004710BD14000020094808B5A8
:101DF000416941F0010141614069002200F00100A8
:101E0000009011460F20FFF731F8BDE808400F2081
:101E1000FFF71FB800100240054808B5816941F07E
:101E200004018161806900F00400009008BD000099
:101E3000001002400C4810B50A4901604FF46121BE
:101E40004160002181600C22C160C0E904128161FF
:101E5000C161FFF7B9FE002803D0BDE81040FEF7CE
:101E600013BA10BD0038014048090020FEE7FEE724
:101E7000704738B50B46009204460022802100F0DE
:101E800009F8002804D0606D40F020006065032050
:101E900038BD00002DE9F8431E46914688460446A9
:101EA000089DFEF765FF401B351AFEF761FF0746E8
:101EB00025480068C0F3CB30684338E0701C37D049
:101EC000FEF756FFC01BA84203D215B1009860B3BD
:101ED0002CE02068416821F0E00141606068B0F5C5
:101EE000827F0BD1A068B0F5004F02D0B0F5806FB3
:101EF00004D12068016821F040010160A06AB0F5BA
:101F0000005F09D12068016821F400510160206858
:101F1000016841F400510160012084F85100002063
:101F200084F850000320BDE8F8830025401E00908F
:101F30002068816838EA010004D000204845BDD1FE
:101F40000020F0E70120F9E7100000207047FEF7BD
:101F500015BF30B58FB028216846FEF734F914213B
:101F60000AA8FEF730F90120010400248DE81300CF
:101F700004904FF4E010CDE908100225079568465B
:101F8000FFF79AF808B172B6FEE70F20CDE90A050F
:101F90004FF48060CDE90C4002210AA80E94FEF7B0
:101FA000A9FF002801D072B6FEE70FB030BD704720
:101FB00010B5406A0021C185C184FFF7C5FC10BD82
:101FC00070B5446A2068406994F84110C0F3C010AD
:101FD0000025212904D118B1E584204600F08EF8AF
:101FE0002068406994F84210C0F38010222904D17F
:101FF00018B1E585204600F05AF8606C40F01000FA
:1020000060642046FFF7A0FC70BD10B50146406A31
:10201000096809684FF0000389062ED4C38501685A
:102020000C3151E8002F22F4807241E80024002C8A
:10203000F5D10168143151E8002F22F0010241E886
:102040000024002CF5D10168143151E8002F22F052
:10205000400241E80024002CF5D1202180F84210F4
:10206000016B012909D101680C3151E8002F22F0E0
:10207000100241E80024002CF5D14363016B0129D3
:1020800002D0FFF74BFE10BD818DFFF78BFB10BD1B
:1020900010B5406A01214163016B012902D0FFF7AD
:1020A0003EFE10BD818D4908FFF77CFB10BD016825
:1020B0000C3151E8002F22F4907241E80023002BEC
:1020C000F5D10168143151E8002F22F0010241E8F6
:1020D0000023002BF5D1016B012909D101680C31D6
:1020E00051E8002F22F0100241E80023002BF5D127
:1020F000202180F8421000210163704701680C31F3
:1021000051E8002F22F0C00241E80023002BF5D156
:10211000202180F84110704708B590F8421022291C
:1021200001D0022008BD81684FF48053994201D14B
:10213000026922B1826A99421BD049B10AE0026861
:10214000816A5268C2F308020A80816A891C08E029
:10215000016971B10168496801F07F011170816AFC
:10216000491C8162C18D491E0904090CC18503D037
:102170001BE001684968F1E70168CA6822F02002A3
:10218000CA600168CA6822F48072CA6001684A693C
:1021900022F001024A61202180F8421000214163AF
:1021A000026B012A03D0FFF7B9FD002008BD0163CF
:1021B00001680C3151E8002F22F0100241E80023A1
:1021C000002BF5D101680A68D20602D50A68496871
:1021D0000091818DFFF7E6FAE7E7000070B504464D
:1021E00000680169E26821F4405111430161A1686E
:1021F00020690143606901432068C26841F20C63B1
:102200009A430A43C26020684169A26921F440717F
:10221000114341611E492068884202D1FEF716FF32
:1022200001E0FEF703FF00EBC00101EB0011606865
:1022300064228000B1FBF0F3B3FBF2F36FF01806F9
:102240007343B1FBF0F5B1FBF0F605EB83053223E8
:1022500003EB0515B5FBF2F5B6FBF2F605F0F0055C
:1022600005EB0615B1FBF0F6B1FBF0F0B0FBF2F0B8
:102270006FF01801484306EB800003EB0010B0FB41
:10228000F2F0216800F00F002844886070BD000063
:102290000038014037B582B01346039A8262044683
:1022A000838500206064222184F84210E56B1B497D
:1022B000A962E56B1A49E962E56B1A492963E16B8A
:1022C00048632168E06B091DFEF7C8FA20680168C1
:1022D00040680090206948B120680C3050E8001F29
:1022E00041F4807140E80012002AF5D120681430D2
:1022F00050E8001F41F0010140E80012002AF5D12A
:102300002068143050E8001F41F0400140E80012FE
:10231000002AF5D105B0002030BD00000B200008D8
:1023200091200008C11F00082DE9F0411E46174604
:1023300088460446069D26E0681C24D025B1FEF799
:1023400017FD801BA8421ED920680C3050E8001FE2
:1023500021F4D07140E80012002AF5D12068143031
:1023600050E8001F21F0010140E80012002AF5D1D9
:10237000202084F8410084F84200002084F84000C6
:102380000320BDE8F0812068016838EA010004D02C
:102390000020B842D0D00020F3E70120F9E7000088
:1023A0000148FFF7DBBA000048090020FEE770B5DE
:1023B0000346002041F221044FF6FF7510E01A7821
:1023C00080EA02200022060403D584EA400080B29D
:1023D00001E005EA4000521CD2B2082AF3D35B1C8C
:1023E000491E89B2EBD270BD0FB4054B10B503A9DD
:1023F000044A029800F028F810BC5DF814FB0000B5
:10240000C52700081C0000200907090E002804DB6E
:1024100000F1E02080F80014704700F00F0000F198
:10242000E02080F8141D704702E008C8121F08C1A0
:10243000002AFAD170477047002001E001C1121F45
:10244000002AFBD1704700002DE9FF4F8BB0884672
:102450000546002606E025280BD0DDE90D12904741
:102460006D1C761C28780028F5D10FB03046BDE8E9
:10247000F08F0024A146A2460122AE4900E00443A9
:1024800015F8013F203B02FA03F00842F7D1287803
:102490002A2810D06FF02F022878A0F130010929E6
:1024A00015D809EB890102EB410144F0020400EB6D
:1024B00001096D1CF0E758F8041B5FEA010903D518
:1024C00044F40054C9F1000944F002046D1C28785A
:1024D0002E2817D115F8010F44F004042A280ED035
:1024E0006FF02F022878A0F1300109290AD80AEBF1
:1024F0008A0102EB410100EB010A6D1CF2E758F87A
:1025000004AB6D1C28786C280FD006DC4C2817D043
:1025100068280DD06A2814D104E0742810D07A28D5
:102520000FD10DE044F400140AE044F4801401E0FB
:1025300044F440146978814202D104F580146D1C82
:102540006D1C2878692865D006DC00288DD06328AA
:1025500027D0642806D15DE06E2808D073282AD0E1
:10256000752877D0DDE90D129047761CE0E0C4F3C2
:102570000250022809D003280DD0D8F800100428F2
:102580000DD00E6008F10408D2E0D8F80010F21760
:10259000C1E90062F6E7D8F800100E80F2E70E708D
:1025A000F0E718F8041B8DF8001000208DF80100EA
:1025B000EB46012003E058F804BB4FF0FF30610701
:1025C0004FF0000701D40AE07F1C57450DDA87421F
:1025D000FADB1BF807100029F6D106E07F1C8742C2
:1025E000FCDB1BF807100029F8D1DDE90D23A9EB6E
:1025F00007008146214600F0B1F83044C61904E0D6
:10260000DDE90D121BF8010B90477F1EF8D2214621
:10261000484688E058F8040BC4F302514FF00A0B07
:10262000032900D100B2042900D140B2002802DA07
:1026300040422D2102E0210505D52B218DF82410E3
:10264000012104E006E0E10710D02021F6E708AF01
:10265000089113E058F8040BC4F302514FF00A0B31
:10266000032900D180B2042900D1C0B20021EEE7D5
:102670005946FDF7B3FD303107F8011D0028F7D1A9
:10268000ADEB070000F1200B600702D524F4803485
:1026900001E04FF0010ADA4502DDAAEB0B0000E091
:1026A0000020824600EB0B0108980144A9EB0100D1
:1026B0000A90E00306D4DDE90D2321460A9800F0D4
:1026C0004DF806444FF0000908E009A911F8090087
:1026D000DDE90D12904709F10109761C0899894539
:1026E000F3DBE0030CD5DDE90D2321460A9800F069
:1026F00035F8064404E0DDE90D1230209047761CE1
:10270000BAF10001AAF1010AF5DC05E0DDE90D12DC
:1027100017F8010B9047761CBBF10001ABF1010BE0
:10272000F4DC0A982146DDE90D2300F005F80644A3
:102730006D1C97E6092801002DE9F04104460025AB
:102740001E461746880404D405E039462020B047C9
:102750006D1C641EF9D52846BDE8F0812DE9F041D5
:10276000044600251E469046C80301D5302700E0E8
:102770002027880404D505E041463846B0476D1C43
:10278000641EF9D52846BDE8F08100B585B04FF04C
:102790000063002203EBC0200492CDE90201CDE9E1
:1027A0000023FEF755F904A96846FEF7B1F820B1F9
:1027B000FEF702F9012005B000BDFEF7FDF800208C
:1027C000F9E7000013B56423012269460248FFF7C8
:1027D000A7FA00981CBD000048090020FEF7D6FAB1
:1027E000FFF7B7FBFFF718FBFFF700FBFFF722FB34
:1027F0004FF4877265496648FEF7A8FF654E0120D1
:10280000307000F0ADF964A0FFF7EEFD6E4FDFF819
:10281000B4813D14DFF8B4A14FF0000BC5F10009FD
:102820006420FEF763F83078012813D004282CD0F8
:102830000528F5D17078810744D565A0FFF7D4FD50
:102840006CA0FFF7D1FD707820F0020040F001008D
:102850007070E5E798F800004446401CC0B20A21B9
:10286000B0FBF1F201FB120288F8000032B9B0FBB4
:10287000F1F0C0F1030167A0FFF7B6FD20781E2834
:10288000CED13846FFF79CFACAE798F8010032210A
:10289000401CC0B2B0FBF1F388F8010001FB13004B
:1028A0000028BDD188F801B065A0FFF79DFD74A098
:1028B000FFF79AFD78A0FFF797FD7EA0FFF794FD44
:1028C00083A009E0C1070AD07068401C706002282C
:1028D000A6D182A0C6F804B0FFF786FDA0E74007A6
:1028E0009ED57FA0B168FFF77FFD40F6B830FDF7B9
:1028F000FDFFEC211420FFF748FF7FA0FFF774FDD8
:102900007078294620F0040070707F48FDF75BFC6A
:1029100000240CE0E1022A467B4800F06DF907EB49
:10292000C4202A46784900F025FB641CA4B2306913
:10293000401EA042EED87069D8B14FF6FF7101EA8F
:10294000C0123169704809EBC12100F055F9706976
:102950003169C2010AEBC1206B4900F00BFB6BA08F
:10296000FFF742FD4FF4FA60FDF7C0FFFEF7B0FA43
:1029700056E731692A4609EBC121634800F03CF96A
:1029800031692A460AEBC120E6E70000200000205A
:1029900048090020300900205072657373206120BF
:1029A00077697468696E2033207365636F6E647332
:1029B00020746F20656E7465722073626F6F740D82
:1029C0000A0000000000002000A000080098000895
:1029D0005761726E696E673A43616E7420717569F2
:1029E00074206265666F72652066696E69736865DA
:1029F000640D0A00506C6561736520557365207421
:102A0000686520584D6F64656D20446F776C6F6109
:102A1000640D0A00507265737320612077697468D1
:102A2000696E20253164207365636F6E6473207452
:102A30006F20656E7465722073626F6F740D0A008B
:102A40002F2A2A2A2A2A2A2A2A2A2A2A2A2A2A2AE1
:102A50002A2A2A2A2A2A2A2A2A2A2A2A2A2A2A2AD6
:102A60002A2A2A2A2A2A2A2A2A2A2A2A2A2A2A2AC6
:102A70002A2A2A2A2A2A2A2A2A2A2A2A2F0D0A0018
:102A80005B415D20557064617465207468652053F6
:102A9000797374656D0D0A005B425D2052756E207E
:102AA000696E746F20746865204D61696E53797327
:102AB0000D0A00005B435D205265737461727420DF
:102AC0007468652053797379656D0D0A0000000004
:102AD0000D0A0D0A0D0A0D0A000000004300000057
:102AE000726561647920777269746520256420704D
:102AF00061636B0D0A000000457261736520446FCD
:102B00006E650D0A000000002E01002057726974E6
:102B1000652046696E69736865640D0A00000000EF
:102B200070B5040300F04EF900F0F6F80B4E4FF4C8
:102B30008055002229463046FEF714F9202000F087
:102B4000EFF9204600F0CEF8012229463046FEF784
:102B500009F9BDE8704000F0DFB80000000C01404A
:102B600070B5224886B0816941F0080181618069B1
:102B70004FF4805500F0080004900120CDE900508A
:102B8000029003201A4E039069463046FDF7F2FF8B
:102B9000012229463046FEF7E5F800F08DF90020C5
:102BA00000F0CEF900F050F812490880A0F56F410E
:102BB000183919D1032000F071F80446C00713D169
:102BC00000F000F944F00201032000F04FF9002268
:102BD00029463046FEF7C6F8B72000F0A1F90122D9
:102BE00029463046FEF7BEF806B070BD0010024020
:102BF000000C0140180000202DE9F041DFF844806E
:102C000015460C4606464FF480570022394640468A
:102C1000FEF7A8F8032000F083F9204600F062F8E0
:102C2000002405E0FF2000F07BF93055641CA4B2BD
:102C3000AC42F7D339464046BDE8F0410122FEF7E9
:102C400091B80000000C01402DE9F041124F4FF403
:102C50008056002231463846FEF784F8902000F076
:102C60005FF9002000F05CF9002000F059F9002025
:102C700000F056F9FF2000F053F90502FF2000F0A4
:102C80004FF940EA0504012231463846FEF76AF85A
:102C90002046BDE8F0810000000C014070B501281D
:102CA00003D0022803D0032803D0052402E03524F2
:102CB00000E015240A4E4FF4805500222946304684
:102CC000FEF750F8204600F02BF9FF2000F028F91D
:102CD0000446012229463046FEF744F8204670BDDE
:102CE000000C014010B504460A480088A0F56F4169
:102CF000183902D1200E00F013F9C4F3074000F098
:102D00000FF9C4F3072000F00BF9E0B2BDE8104062
:102D100000F006B91800002010B50120FFF7BEFF33
:102D2000C007FAD110BD00002DE9F05FC1F30B061A
:102D3000DFF88C800F0BC6F580548A468146154615
:102D4000A24200D8144639038B464FF480524046C5
:102D5000FFF752FF002006E0321818F80210FF2992
:102D600003D1401C80B2A042F6D3A04221D2384603
:102D7000FFF7D6FE002006E019F800208319401C5A
:102D800008F8032080B2A042F6D359464FF480528F
:102D9000404600F02DF8A5420FD0281BA144A244C4
:102DA000002685B24FF480547F1CA542CBD82C4618
:102DB000C9E7224651464846EBE7BDE8F09F0000D0
:102DC000F809002070B5094D4FF4805400222146C7
:102DD0002846FDF7C7FF062000F0A2F82146284646
:102DE000BDE870400122FDF7BDBF0000000C0140AE
:102DF0002DE9F05F8046C8B2C0F580740F461646D4
:102E0000A24200D814464FF48059DFF85CA04FF47A
:102E1000807BFFF7D7FF002249465046FDF7A2FF0F
:102E2000022000F07DF83846FFF75CFF002505E042
:102E300018F8050000F074F86D1CADB2A542F7D388
:102E4000012249465046FDF78DFFFFF765FFA64278
:102E500008D0301BA044274486B25C46A642D8D88E
:102E60003446D6E7BDE8F09F000C01402DE9F04163
:102E70000D46012803D0022803D0032803D00124E3
:102E800002E0312400E011240A4F4FF48056002262
:102E900031463846FDF766FF204600F041F82846E7
:102EA00000F03EF831463846BDE8F0410122FDF71A
:102EB00059BF0000000C014038B51648C16941F403
:102EC0008041C161C069154C00F4804000901248F7
:102ED00020604FF48270606000200221A060C4E98D
:102EE0000301012161614902A1613821C4E9071090
:102EF0006062A0620720E0622046FEF780FA206848
:102F0000016841F040010160BDE83840FF2000F059
:102F100007B800000010024000380040F8190020F7
:102F200001B582B04FF47A700090012301AA02A982
:102F30000248FEF703FB9DF804000EBDF8190020BF
:102F40000B4A10B511680B6823F040030B60116841
:102F50000B684FF6C77423400B6011680B6843EA97
:102F6000C00008601068016841F04001016010BDB8
:102F7000F819002070B514460D460646FDF768FDA9
:102F800008E00023314602202A68FDF71FFD241FB8
:102F90002D1D361D002CF4D1BDE87040FDF70CBD91
:102FA000010202030405060708090A0B0C0D0E0FA7
:102FB00010100000000000000000010203040607DA
:102FC000080900000000010203040000EC2F0008C3
:102FD0000000002020000000282400080C30000819
:102FE00020000020301E00003824000800000000EF
:102FF0000100000010000000000000000024F400A8
:0C3000000000000017520000000000005B
:0400000508000131BD
:00000001FF
